S01800004763634170706C69636174696F6E33322E7372656326
S11300000C942A000C943C000C943C000C943C008E
S11300100C943C000C943C000C943C000C943E006A
S11300200C943C000C943C000C943C000C943C005C
S11300300C943C000C943C000C943C000C943C004C
S11300400C943C000C943C000C943C000C943C003C
S11300500C943C0011241FBECFE5D8E0DEBFCDBF19
S113006020E0A0E6B0E001C01D92A436B207E1F79B
S11300700E946F000C947E000C9400001F920F925B
S11300800FB60F9211248F939F93809162009091E9
S1130090630001969093630080936200CC9794F080
S11300A0809160009091610001969093610080932B
S11300B06000B19B02C0C19801C0C19A1092630054
S11300C010926200B09B02C0C09801C0C09A1CBCD0
S11300D09F918F910F900FBE0F901F90189583E002
S11300E087BB18BA80E48FBD85E08EBD8DE38BBDE0
S11300F089E08ABD80E189BF7894FFCFF894FFCF6F
S9030000FC
